{
  "contractName": "UserManagement",
  "abi": [
    {
      "anonymous": false,
      "inputs": [
        {
          "indexed": false,
          "internalType": "address",
          "name": "userAddress",
          "type": "address"
        },
        {
          "indexed": false,
          "internalType": "string",
          "name": "email",
          "type": "string"
        }
      ],
      "name": "UserRegistered",
      "type": "event"
    },
    {
      "inputs": [
        {
          "internalType": "address",
          "name": "",
          "type": "address"
        }
      ],
      "name": "users",
      "outputs": [
        {
          "internalType": "string",
          "name": "email",
          "type": "string"
        },
        {
          "internalType": "bytes32",
          "name": "passwordHash",
          "type": "bytes32"
        },
        {
          "internalType": "bool",
          "name": "isRegistered",
          "type": "bool"
        }
      ],
      "stateMutability": "view",
      "type": "function"
    },
    {
      "inputs": [
        {
          "internalType": "string",
          "name": "_email",
          "type": "string"
        },
        {
          "internalType": "bytes32",
          "name": "_passwordHash",
          "type": "bytes32"
        }
      ],
      "name": "registerUser",
      "outputs": [],
      "stateMutability": "nonpayable",
      "type": "function"
    },
    {
      "inputs": [
        {
          "internalType": "string",
          "name": "_email",
          "type": "string"
        },
        {
          "internalType": "bytes32",
          "name": "_passwordHash",
          "type": "bytes32"
        }
      ],
      "name": "login",
      "outputs": [
        {
          "internalType": "bool",
          "name": "",
          "type": "bool"
        }
      ],
      "stateMutability": "view",
      "type": "function"
    },
    {
      "inputs": [
        {
          "internalType": "address",
          "name": "_userAddress",
          "type": "address"
        }
      ],
      "name": "isUserRegistered",
      "outputs": [
        {
          "internalType": "bool",
          "name": "",
          "type": "bool"
        }
      ],
      "stateMutability": "view",
      "type": "function"
    }
  ],
  "bytecode": "0x608060405234801561000f575f80fd5b50610c338061001d5f395ff3fe608060405234801561000f575f80fd5b506004361061004a575f3560e01c806304f754061461004e578063163f75221461007e57806368ae5563146100ae578063a87430ba146100ca575b5f80fd5b6100686004803603810190610063919061065f565b6100fc565b60405161007591906106d3565b60405180910390f35b61009860048036038101906100939190610746565b610271565b6040516100a591906106d3565b60405180910390f35b6100c860048036038101906100c3919061065f565b6102c5565b005b6100e460048036038101906100df9190610746565b610428565b6040516100f3939291906107fa565b60405180910390f35b5f805f803373ffffffffffffffffffffffffffffffffffffffff1673ffffffffffffffffffffffffffffffffffffffff1681526020019081526020015f206040518060600160405290815f8201805461015490610863565b80601f016020809104026020016040519081016040528092919081815260200182805461018090610863565b80156101cb5780601f106101a2576101008083540402835291602001916101cb565b820191905f5260205f20905b8154815290600101906020018083116101ae57829003601f168201915b5050505050815260200160018201548152602001600282015f9054906101000a900460ff16151515158152505090508060400151801561025957508360405160200161021791906108cd565b60405160208183030381529060405280519060200120815f015160405160200161024191906108cd565b60405160208183030381529060405280519060200120145b80156102685750828160200151145b91505092915050565b5f805f8373ffffffffffffffffffffffffffffffffffffffff1673ffffffffffffffffffffffffffffffffffffffff1681526020019081526020015f206002015f9054906101000a900460ff169050919050565b5f803373ffffffffffffffffffffffffffffffffffffffff1673ffffffffffffffffffffffffffffffffffffffff1681526020019081526020015f206002015f9054906101000a900460ff1615610351576040517f08c379a00000000000000000000000000000000000000000000000000000000081526004016103489061092d565b60405180910390fd5b6040518060600160405280838152602001828152602001600115158152505f803373ffffffffffffffffffffffffffffffffffffffff1673ffffffffffffffffffffffffffffffffffffffff1681526020019081526020015f205f820151815f0190816103be9190610af1565b50602082015181600101556040820151816002015f6101000a81548160ff0219169083151502179055509050507f48cac28ad4dc618e15f4c2dd5e97751182f166de97b25618318b2112aa951a2f338360405161041c929190610bcf565b60405180910390a15050565b5f602052805f5260405f205f91509050805f01805461044690610863565b80601f016020809104026020016040519081016040528092919081815260200182805461047290610863565b80156104bd5780601f10610494576101008083540402835291602001916104bd565b820191905f5260205f20905b8154815290600101906020018083116104a057829003601f168201915b505050505090806001015490806002015f9054906101000a900460ff16905083565b5f604051905090565b5f80fd5b5f80fd5b5f80fd5b5f80fd5b5f601f19601f8301169050919050565b7f4e487b71000000000000000000000000000000000000000000000000000000005f52604160045260245ffd5b61053e826104f8565b810181811067ffffffffffffffff8211171561055d5761055c610508565b5b80604052505050565b5f61056f6104df565b905061057b8282610535565b919050565b5f67ffffffffffffffff82111561059a57610599610508565b5b6105a3826104f8565b9050602081019050919050565b828183375f83830152505050565b5f6105d06105cb84610580565b610566565b9050828152602081018484840111156105ec576105eb6104f4565b5b6105f78482856105b0565b509392505050565b5f82601f830112610613576106126104f0565b5b81356106238482602086016105be565b91505092915050565b5f819050919050565b61063e8161062c565b8114610648575f80fd5b50565b5f8135905061065981610635565b92915050565b5f8060408385031215610675576106746104e8565b5b5f83013567ffffffffffffffff811115610692576106916104ec565b5b61069e858286016105ff565b92505060206106af8582860161064b565b9150509250929050565b5f8115159050919050565b6106cd816106b9565b82525050565b5f6020820190506106e65f8301846106c4565b92915050565b5f73ffffffffffffffffffffffffffffffffffffffff82169050919050565b5f610715826106ec565b9050919050565b6107258161070b565b811461072f575f80fd5b50565b5f813590506107408161071c565b92915050565b5f6020828403121561075b5761075a6104e8565b5b5f61076884828501610732565b91505092915050565b5f81519050919050565b5f82825260208201905092915050565b5f5b838110156107a857808201518184015260208101905061078d565b5f8484015250505050565b5f6107bd82610771565b6107c7818561077b565b93506107d781856020860161078b565b6107e0816104f8565b840191505092915050565b6107f48161062c565b82525050565b5f6060820190508181035f83015261081281866107b3565b905061082160208301856107eb565b61082e60408301846106c4565b949350505050565b7f4e487b71000000000000000000000000000000000000000000000000000000005f52602260045260245ffd5b5f600282049050600182168061087a57607f821691505b60208210810361088d5761088c610836565b5b50919050565b5f81905092915050565b5f6108a782610771565b6108b18185610893565b93506108c181856020860161078b565b80840191505092915050565b5f6108d8828461089d565b915081905092915050565b7f5573657220616c726561647920726567697374657265640000000000000000005f82015250565b5f61091760178361077b565b9150610922826108e3565b602082019050919050565b5f6020820190508181035f8301526109448161090b565b9050919050565b5f819050815f5260205f209050919050565b5f6020601f8301049050919050565b5f82821b905092915050565b5f600883026109a77fffffffffffffffffffffffffffffffffffffffffffffffffffffffffffffffff8261096c565b6109b1868361096c565b95508019841693508086168417925050509392505050565b5f819050919050565b5f819050919050565b5f6109f56109f06109eb846109c9565b6109d2565b6109c9565b9050919050565b5f819050919050565b610a0e836109db565b610a22610a1a826109fc565b848454610978565b825550505050565b5f90565b610a36610a2a565b610a41818484610a05565b505050565b5b81811015610a6457610a595f82610a2e565b600181019050610a47565b5050565b601f821115610aa957610a7a8161094b565b610a838461095d565b81016020851015610a92578190505b610aa6610a9e8561095d565b830182610a46565b50505b505050565b5f82821c905092915050565b5f610ac95f1984600802610aae565b1980831691505092915050565b5f610ae18383610aba565b9150826002028217905092915050565b610afa82610771565b67ffffffffffffffff811115610b1357610b12610508565b5b610b1d8254610863565b610b28828285610a68565b5f60209050601f831160018114610b59575f8415610b47578287015190505b610b518582610ad6565b865550610bb8565b601f198416610b678661094b565b5f5b82811015610b8e57848901518255600182019150602085019450602081019050610b69565b86831015610bab5784890151610ba7601f891682610aba565b8355505b6001600288020188555050505b505050505050565b610bc98161070b565b82525050565b5f604082019050610be25f830185610bc0565b8181036020830152610bf481846107b3565b9050939250505056fea264697066735822122081c716b4ad6685e16446c1f428608d52b631a0495796a727d12f239761c6c8dd64736f6c63430008150033",
  "immutableReferences": {},
  "source": "pragma solidity ^0.8.0;\n\ncontract UserManagement {\n    struct User {\n        string email;\n        bytes32 passwordHash;\n        bool isRegistered;\n    }\n\n    mapping(address => User) public users;\n\n    event UserRegistered(address userAddress, string email);\n\n    function registerUser(string memory _email, bytes32 _passwordHash) public {\n        require(!users[msg.sender].isRegistered, \"User already registered\");\n        users[msg.sender] = User(_email, _passwordHash, true);\n        emit UserRegistered(msg.sender, _email);\n    }\n\n    function login(string memory _email, bytes32 _passwordHash) public view returns (bool) {\n        User memory user = users[msg.sender];\n        return (user.isRegistered && \n                keccak256(abi.encodePacked(user.email)) == keccak256(abi.encodePacked(_email)) && \n                user.passwordHash == _passwordHash);\n    }\n\n    function isUserRegistered(address _userAddress) public view returns (bool) {\n        return users[_userAddress].isRegistered;\n    }\n}",
  "sourcePath": "/Users/oladmin/Desktop/CS-Y3/Diss/voting-smart-contract/contracts/UserManagment.sol",
  "compiler": {
    "name": "solc",
    "version": "0.8.21+commit.d9974bed.Emscripten.clang"
  },
  "schemaVersion": "3.4.16",
  "updatedAt": "2024-09-08T15:30:17.159Z",
  "devdoc": {
    "kind": "dev",
    "methods": {},
    "version": 1
  },
  "userdoc": {
    "kind": "user",
    "methods": {},
    "version": 1
  }
}