{
  "contractName": "Voting",
  "abi": [
    {
      "inputs": [
        {
          "internalType": "string[]",
          "name": "candidateNames",
          "type": "string[]"
        }
      ],
      "stateMutability": "nonpayable",
      "type": "constructor"
    },
    {
      "anonymous": false,
      "inputs": [
        {
          "indexed": true,
          "internalType": "address",
          "name": "voter",
          "type": "address"
        },
        {
          "indexed": false,
          "internalType": "string",
          "name": "candidate",
          "type": "string"
        }
      ],
      "name": "VoteCasted",
      "type": "event"
    },
    {
      "inputs": [
        {
          "internalType": "uint256",
          "name": "",
          "type": "uint256"
        }
      ],
      "name": "candidateList",
      "outputs": [
        {
          "internalType": "string",
          "name": "",
          "type": "string"
        }
      ],
      "stateMutability": "view",
      "type": "function"
    },
    {
      "inputs": [
        {
          "internalType": "address",
          "name": "",
          "type": "address"
        }
      ],
      "name": "hasVoted",
      "outputs": [
        {
          "internalType": "bool",
          "name": "",
          "type": "bool"
        }
      ],
      "stateMutability": "view",
      "type": "function"
    },
    {
      "inputs": [
        {
          "internalType": "address",
          "name": "",
          "type": "address"
        }
      ],
      "name": "isVerified",
      "outputs": [
        {
          "internalType": "bool",
          "name": "",
          "type": "bool"
        }
      ],
      "stateMutability": "view",
      "type": "function"
    },
    {
      "inputs": [
        {
          "internalType": "string",
          "name": "",
          "type": "string"
        }
      ],
      "name": "votesReceived",
      "outputs": [
        {
          "internalType": "uint256",
          "name": "",
          "type": "uint256"
        }
      ],
      "stateMutability": "view",
      "type": "function"
    },
    {
      "inputs": [
        {
          "internalType": "address",
          "name": "voter",
          "type": "address"
        }
      ],
      "name": "verifyIdentity",
      "outputs": [],
      "stateMutability": "nonpayable",
      "type": "function"
    },
    {
      "inputs": [
        {
          "internalType": "string",
          "name": "candidate",
          "type": "string"
        }
      ],
      "name": "vote",
      "outputs": [],
      "stateMutability": "nonpayable",
      "type": "function"
    },
    {
      "inputs": [
        {
          "internalType": "string",
          "name": "candidate",
          "type": "string"
        }
      ],
      "name": "validCandidate",
      "outputs": [
        {
          "internalType": "bool",
          "name": "",
          "type": "bool"
        }
      ],
      "stateMutability": "view",
      "type": "function"
    },
    {
      "inputs": [],
      "name": "getCandidates",
      "outputs": [
        {
          "internalType": "string[]",
          "name": "",
          "type": "string[]"
        }
      ],
      "stateMutability": "view",
      "type": "function"
    }
  ],
  "bytecode": "0x608060405234801562000010575f80fd5b506040516200165f3803806200165f8339818101604052810190620000369190620003b8565b80600390805190602001906200004e92919062000056565b505062000722565b828054828255905f5260205f20908101928215620000a1579160200282015b82811115620000a05782518290816200008f91906200063e565b509160200191906001019062000075565b5b509050620000b09190620000b4565b5090565b5b80821115620000d7575f8181620000cd9190620000db565b50600101620000b5565b5090565b508054620000e9906200043e565b5f825580601f10620000fc57506200011b565b601f0160209004905f5260205f20908101906200011a91906200011e565b5b50565b5b8082111562000137575f815f9055506001016200011f565b5090565b5f604051905090565b5f80fd5b5f80fd5b5f80fd5b5f601f19601f8301169050919050565b7f4e487b71000000000000000000000000000000000000000000000000000000005f52604160045260245ffd5b620001988262000150565b810181811067ffffffffffffffff82111715620001ba57620001b962000160565b5b80604052505050565b5f620001ce6200013b565b9050620001dc82826200018d565b919050565b5f67ffffffffffffffff821115620001fe57620001fd62000160565b5b602082029050602081019050919050565b5f80fd5b5f80fd5b5f67ffffffffffffffff82111562000234576200023362000160565b5b6200023f8262000150565b9050602081019050919050565b5f5b838110156200026b5780820151818401526020810190506200024e565b5f8484015250505050565b5f6200028c620002868462000217565b620001c3565b905082815260208101848484011115620002ab57620002aa62000213565b5b620002b88482856200024c565b509392505050565b5f82601f830112620002d757620002d66200014c565b5b8151620002e984826020860162000276565b91505092915050565b5f620003086200030284620001e1565b620001c3565b905080838252602082019050602084028301858111156200032e576200032d6200020f565b5b835b818110156200037c57805167ffffffffffffffff8111156200035757620003566200014c565b5b808601620003668982620002c0565b8552602085019450505060208101905062000330565b5050509392505050565b5f82601f8301126200039d576200039c6200014c565b5b8151620003af848260208601620002f2565b91505092915050565b5f60208284031215620003d057620003cf62000144565b5b5f82015167ffffffffffffffff811115620003f057620003ef62000148565b5b620003fe8482850162000386565b91505092915050565b5f81519050919050565b7f4e487b71000000000000000000000000000000000000000000000000000000005f52602260045260245ffd5b5f60028204905060018216806200045657607f821691505b6020821081036200046c576200046b62000411565b5b50919050565b5f819050815f5260205f209050919050565b5f6020601f8301049050919050565b5f82821b905092915050565b5f60088302620004d07fffffffffffffffffffffffffffffffffffffffffffffffffffffffffffffffff8262000493565b620004dc868362000493565b95508019841693508086168417925050509392505050565b5f819050919050565b5f819050919050565b5f62000526620005206200051a84620004f4565b620004fd565b620004f4565b9050919050565b5f819050919050565b620005418362000506565b6200055962000550826200052d565b8484546200049f565b825550505050565b5f90565b6200056f62000561565b6200057c81848462000536565b505050565b5b81811015620005a357620005975f8262000565565b60018101905062000582565b5050565b601f821115620005f257620005bc8162000472565b620005c78462000484565b81016020851015620005d7578190505b620005ef620005e68562000484565b83018262000581565b50505b505050565b5f82821c905092915050565b5f620006145f1984600802620005f7565b1980831691505092915050565b5f6200062e838362000603565b9150826002028217905092915050565b620006498262000407565b67ffffffffffffffff81111562000665576200066462000160565b5b6200067182546200043e565b6200067e828285620005a7565b5f60209050601f831160018114620006b4575f84156200069f578287015190505b620006ab858262000621565b8655506200071a565b601f198416620006c48662000472565b5f5b82811015620006ed57848901518255600182019150602085019450602081019050620006c6565b868310156200070d578489015162000709601f89168262000603565b8355505b6001600288020188555050505b505050505050565b610f2f80620007305f395ff3fe608060405234801561000f575f80fd5b5060043610610086575f3560e01c8063b13c744b11610059578063b13c744b14610138578063b5b90fd914610168578063b9209e3314610184578063fc36e15b146101b457610086565b806306a49fce1461008a57806309eef43e146100a8578063538c91b2146100d85780638d4b44d914610108575b5f80fd5b6100926101d0565b60405161009f9190610828565b60405180910390f35b6100c260048036038101906100bd91906108b3565b6102a4565b6040516100cf91906108f8565b60405180910390f35b6100f260048036038101906100ed9190610a3d565b6102c0565b6040516100ff91906108f8565b60405180910390f35b610122600480360381019061011d9190610a3d565b610368565b60405161012f9190610a9c565b60405180910390f35b610152600480360381019061014d9190610adf565b610395565b60405161015f9190610b52565b60405180910390f35b610182600480360381019061017d91906108b3565b61043b565b005b61019e600480360381019061019991906108b3565b610492565b6040516101ab91906108f8565b60405180910390f35b6101ce60048036038101906101c99190610a3d565b6104af565b005b60606003805480602002602001604051908101604052809291908181526020015f905b8282101561029b578382905f5260205f2001805461021090610b9f565b80601f016020809104026020016040519081016040528092919081815260200182805461023c90610b9f565b80156102875780601f1061025e57610100808354040283529160200191610287565b820191905f5260205f20905b81548152906001019060200180831161026a57829003601f168201915b5050505050815260200190600101906101f3565b50505050905090565b5f602052805f5260405f205f915054906101000a900460ff1681565b5f805f90505b60038054905081101561035e57826040516020016102e49190610c09565b604051602081830303815290604052805190602001206003828154811061030e5761030d610c1f565b5b905f5260205f20016040516020016103269190610cde565b604051602081830303815290604052805190602001200361034b576001915050610363565b808061035690610d21565b9150506102c6565b505f90505b919050565b6002818051602081018201805184825260208301602085012081835280955050505050505f915090505481565b600381815481106103a4575f80fd5b905f5260205f20015f9150905080546103bc90610b9f565b80601f01602080910402602001604051908101604052809291908181526020018280546103e890610b9f565b80156104335780601f1061040a57610100808354040283529160200191610433565b820191905f5260205f20905b81548152906001019060200180831161041657829003601f168201915b505050505081565b6001805f8373ffffffffffffffffffffffffffffffffffffffff1673ffffffffffffffffffffffffffffffffffffffff1681526020019081526020015f205f6101000a81548160ff02191690831515021790555050565b6001602052805f5260405f205f915054906101000a900460ff1681565b60015f3373ffffffffffffffffffffffffffffffffffffffff1673ffffffffffffffffffffffffffffffffffffffff1681526020019081526020015f205f9054906101000a900460ff16610538576040517f08c379a000000000000000000000000000000000000000000000000000000000815260040161052f90610dd8565b60405180910390fd5b5f803373ffffffffffffffffffffffffffffffffffffffff1673ffffffffffffffffffffffffffffffffffffffff1681526020019081526020015f205f9054906101000a900460ff16156105c1576040517f08c379a00000000000000000000000000000000000000000000000000000000081526004016105b890610e40565b60405180910390fd5b6105ca816102c0565b610609576040517f08c379a000000000000000000000000000000000000000000000000000000000815260040161060090610ea8565b60405180910390fd5b600160028260405161061b9190610c09565b90815260200160405180910390205f8282546106379190610ec6565b9250508190555060015f803373ffffffffffffffffffffffffffffffffffffffff1673ffffffffffffffffffffffffffffffffffffffff1681526020019081526020015f205f6101000a81548160ff0219169083151502179055503373ffffffffffffffffffffffffffffffffffffffff167fb7821d50dfbda5ea310faebbeac5217bc1bb0cabe463e76b80e48d11e57df098826040516106d89190610b52565b60405180910390a250565b5f81519050919050565b5f82825260208201905092915050565b5f819050602082019050919050565b5f81519050919050565b5f82825260208201905092915050565b5f5b83811015610743578082015181840152602081019050610728565b5f8484015250505050565b5f601f19601f8301169050919050565b5f6107688261070c565b6107728185610716565b9350610782818560208601610726565b61078b8161074e565b840191505092915050565b5f6107a1838361075e565b905092915050565b5f602082019050919050565b5f6107bf826106e3565b6107c981856106ed565b9350836020820285016107db856106fd565b805f5b8581101561081657848403895281516107f78582610796565b9450610802836107a9565b925060208a019950506001810190506107de565b50829750879550505050505092915050565b5f6020820190508181035f83015261084081846107b5565b905092915050565b5f604051905090565b5f80fd5b5f80fd5b5f73ffffffffffffffffffffffffffffffffffffffff82169050919050565b5f61088282610859565b9050919050565b61089281610878565b811461089c575f80fd5b50565b5f813590506108ad81610889565b92915050565b5f602082840312156108c8576108c7610851565b5b5f6108d58482850161089f565b91505092915050565b5f8115159050919050565b6108f2816108de565b82525050565b5f60208201905061090b5f8301846108e9565b92915050565b5f80fd5b5f80fd5b7f4e487b71000000000000000000000000000000000000000000000000000000005f52604160045260245ffd5b61094f8261074e565b810181811067ffffffffffffffff8211171561096e5761096d610919565b5b80604052505050565b5f610980610848565b905061098c8282610946565b919050565b5f67ffffffffffffffff8211156109ab576109aa610919565b5b6109b48261074e565b9050602081019050919050565b828183375f83830152505050565b5f6109e16109dc84610991565b610977565b9050828152602081018484840111156109fd576109fc610915565b5b610a088482856109c1565b509392505050565b5f82601f830112610a2457610a23610911565b5b8135610a348482602086016109cf565b91505092915050565b5f60208284031215610a5257610a51610851565b5b5f82013567ffffffffffffffff811115610a6f57610a6e610855565b5b610a7b84828501610a10565b91505092915050565b5f819050919050565b610a9681610a84565b82525050565b5f602082019050610aaf5f830184610a8d565b92915050565b610abe81610a84565b8114610ac8575f80fd5b50565b5f81359050610ad981610ab5565b92915050565b5f60208284031215610af457610af3610851565b5b5f610b0184828501610acb565b91505092915050565b5f82825260208201905092915050565b5f610b248261070c565b610b2e8185610b0a565b9350610b3e818560208601610726565b610b478161074e565b840191505092915050565b5f6020820190508181035f830152610b6a8184610b1a565b905092915050565b7f4e487b71000000000000000000000000000000000000000000000000000000005f52602260045260245ffd5b5f6002820490506001821680610bb657607f821691505b602082108103610bc957610bc8610b72565b5b50919050565b5f81905092915050565b5f610be38261070c565b610bed8185610bcf565b9350610bfd818560208601610726565b80840191505092915050565b5f610c148284610bd9565b915081905092915050565b7f4e487b71000000000000000000000000000000000000000000000000000000005f52603260045260245ffd5b5f819050815f5260205f209050919050565b5f8154610c6a81610b9f565b610c748186610bcf565b9450600182165f8114610c8e5760018114610ca357610cd5565b60ff1983168652811515820286019350610cd5565b610cac85610c4c565b5f5b83811015610ccd57815481890152600182019150602081019050610cae565b838801955050505b50505092915050565b5f610ce98284610c5e565b915081905092915050565b7f4e487b71000000000000000000000000000000000000000000000000000000005f52601160045260245ffd5b5f610d2b82610a84565b91507fffffffffffffffffffffffffffffffffffffffffffffffffffffffffffffffff8203610d5d57610d5c610cf4565b5b600182019050919050565b7f596f75206d7573742076657269667920796f7572206964656e746974792062655f8201527f666f726520766f74696e672e0000000000000000000000000000000000000000602082015250565b5f610dc2602c83610b0a565b9150610dcd82610d68565b604082019050919050565b5f6020820190508181035f830152610def81610db6565b9050919050565b7f596f75206861766520616c726561647920766f7465642e0000000000000000005f82015250565b5f610e2a601783610b0a565b9150610e3582610df6565b602082019050919050565b5f6020820190508181035f830152610e5781610e1e565b9050919050565b7f496e76616c69642063616e6469646174652e00000000000000000000000000005f82015250565b5f610e92601283610b0a565b9150610e9d82610e5e565b602082019050919050565b5f6020820190508181035f830152610ebf81610e86565b9050919050565b5f610ed082610a84565b9150610edb83610a84565b9250828201905080821115610ef357610ef2610cf4565b5b9291505056fea2646970667358221220ec075015369c17c8d00e0dd9082b1f3cba1e0e5a8e03d1b7631b095dae04b78b64736f6c63430008150033",
  "immutableReferences": {},
  "source": "// SPDX-License-Identifier: MIT\npragma solidity ^0.8.0;\n\nimport \"./UserManagment.sol\";\n\ncontract Voting {\n    mapping(address => bool) public hasVoted;\n    mapping(address => bool) public isVerified; // New mapping for identity verification\n    mapping(string => uint) public votesReceived;\n    string[] public candidateList;\n\n    // Event for voting\n    event VoteCasted(address indexed voter, string candidate);\n\n    // Constructor initializes the candidate list\n    constructor(string[] memory candidateNames) {\n        candidateList = candidateNames;\n    }\n\n    // Function to verify voter identity\n    function verifyIdentity(address voter) public {\n        // Only the contract owner or an authorized entity should call this\n        isVerified[voter] = true; // Mark the voter as verified\n    }\n\n    // Vote function\n    function vote(string memory candidate) public {\n        require(isVerified[msg.sender], \"You must verify your identity before voting.\");\n        require(!hasVoted[msg.sender], \"You have already voted.\");\n        require(validCandidate(candidate), \"Invalid candidate.\");\n\n        votesReceived[candidate] += 1;\n        hasVoted[msg.sender] = true;\n\n        // Emit event when a vote is cast\n        emit VoteCasted(msg.sender, candidate);\n    }\n\n    // Check if the candidate is valid\n    function validCandidate(string memory candidate) view public returns (bool) {\n        for (uint i = 0; i < candidateList.length; i++) {\n            if (keccak256(abi.encodePacked(candidateList[i])) == keccak256(abi.encodePacked(candidate))) {\n                return true;\n            }\n        }\n        return false;\n    }\n\n    // Function to get the candidate list\n    function getCandidates() public view returns (string[] memory) {\n        return candidateList;\n    }\n}\n\n\n",
  "sourcePath": "/Users/oladmin/Desktop/CS-Y3/Diss/voting-smart-contract/contracts/contract.sol",
  "compiler": {
    "name": "solc",
    "version": "0.8.21+commit.d9974bed.Emscripten.clang"
  },
  "schemaVersion": "3.4.16",
  "updatedAt": "2024-09-08T15:30:17.166Z",
  "devdoc": {
    "kind": "dev",
    "methods": {},
    "version": 1
  },
  "userdoc": {
    "kind": "user",
    "methods": {},
    "version": 1
  }
}